{
  "address": "0x88c5E43850466B56C43588AC7F25440757Ca21FE",
  "abi": [
    {
      "inputs": [
        {
          "internalType": "string",
          "name": "prefix",
          "type": "string"
        }
      ],
      "stateMutability": "nonpayable",
      "type": "constructor"
    },
    {
      "inputs": [
        {
          "internalType": "string",
          "name": "message",
          "type": "string"
        }
      ],
      "name": "InvalidMessage",
      "type": "error"
    },
    {
      "anonymous": false,
      "inputs": [
        {
          "indexed": true,
          "internalType": "address",
          "name": "user",
          "type": "address"
        },
        {
          "indexed": false,
          "internalType": "string",
          "name": "message",
          "type": "string"
        }
      ],
      "name": "MessageChanged",
      "type": "event"
    },
    {
      "inputs": [
        {
          "internalType": "uint256",
          "name": "limit",
          "type": "uint256"
        }
      ],
      "name": "getLastMessages",
      "outputs": [
        {
          "components": [
            {
              "internalType": "address",
              "name": "account",
              "type": "address"
            },
            {
              "internalType": "string",
              "name": "message",
              "type": "string"
            },
            {
              "internalType": "uint256",
              "name": "timestamp",
              "type": "uint256"
            }
          ],
          "internalType": "struct GreetingsRegistry.Message[]",
          "name": "messagesToReturn",
          "type": "tuple[]"
        }
      ],
      "stateMutability": "view",
      "type": "function"
    },
    {
      "inputs": [
        {
          "internalType": "address",
          "name": "account",
          "type": "address"
        }
      ],
      "name": "messages",
      "outputs": [
        {
          "internalType": "string",
          "name": "",
          "type": "string"
        }
      ],
      "stateMutability": "view",
      "type": "function"
    },
    {
      "inputs": [
        {
          "internalType": "string",
          "name": "message",
          "type": "string"
        }
      ],
      "name": "setMessage",
      "outputs": [],
      "stateMutability": "nonpayable",
      "type": "function"
    }
  ],
  "contractName": "GreetingsRegistry",
  "sourceName": "src/GreetingsRegistry/GreetingsRegistry.sol",
  "bytecode": "0x608060405234801561000f575f5ffd5b506040516110a93803806110a983398101604081905261002e91610054565b5f6100398282610188565b5050610242565b634e487b7160e01b5f52604160045260245ffd5b5f60208284031215610064575f5ffd5b81516001600160401b03811115610079575f5ffd5b8201601f81018413610089575f5ffd5b80516001600160401b038111156100a2576100a2610040565b604051601f8201601f19908116603f011681016001600160401b03811182821017156100d0576100d0610040565b6040528181528282016020018610156100e7575f5ffd5b8160208401602083015e5f91810160200191909152949350505050565b600181811c9082168061011857607f821691505b60208210810361013657634e487b7160e01b5f52602260045260245ffd5b50919050565b601f82111561018357805f5260205f20601f840160051c810160208510156101615750805b601f840160051c820191505b81811015610180575f815560010161016d565b50505b505050565b81516001600160401b038111156101a1576101a1610040565b6101b5816101af8454610104565b8461013c565b6020601f8211600181146101e7575f83156101d05750848201515b5f19600385901b1c1916600184901b178455610180565b5f84815260208120601f198516915b8281101561021657878501518255602094850194600190920191016101f6565b508482101561023357868401515f19600387901b60f8161c191681555b50505050600190811b01905550565b610e5a8061024f5f395ff3fe608060405234801561000f575f5ffd5b506004361061003f575f3560e01c8063368b8772146100435780635fdd59f814610058578063d26ffa3b14610081575b5f5ffd5b6100566100513660046107b7565b6100a1565b005b61006b610066366004610825565b61039b565b60405161007891906108ab565b60405180910390f35b61009461008f3660046108bd565b610461565b60405161007891906108d4565b5f8190036100e85781816040517fb427cbbb0000000000000000000000000000000000000000000000000000000081526004016100df92919061098d565b60405180910390fd5b5f5f83836040516020016100fe93929190610a24565b60405160208183030381529060405290505f600354600161011f9190610aeb565b335f9081526001602052604090205490915080156102a6575f818152600260205260409020548015610250575f818152600260208190526040808320600180820180548887529390952082548155945490850180547fffffffffffffffffffffffff00000000000000000000000000000000000000001673ffffffffffffffffffffffffffffffffffffffff928316179055909116929091818101906101c790840182610b7d565b5060039182015491015573ffffffffffffffffffffffffffffffffffffffff81165f908152600160208181526040808420879055858452600291829052832083815591820180547fffffffffffffffffffffffff000000000000000000000000000000000000000016905590919061024190830182610765565b600382015f90555050506102a4565b5f82815260026020819052604082208281556001810180547fffffffffffffffffffffffff0000000000000000000000000000000000000000169055919061029a90830182610765565b600382015f905550505b505b6040805160808101825260035481523360208083019182528284018781524260608501525f878152600292839052949094208351815591516001830180547fffffffffffffffffffffffff00000000000000000000000000000000000000001673ffffffffffffffffffffffffffffffffffffffff909216919091179055925191929091908201906103389082610cb1565b5060609190910151600391820155335f81815260016020526040908190208590559184905590517f5de788bae851e5b8df641f15cc3e7e401946111d99b835b0e3f619b04f8ce68f9061038c9086906108ab565b60405180910390a25050505050565b73ffffffffffffffffffffffffffffffffffffffff81165f908152600160209081526040808320548352600291829052909120018054606091906103de906109d9565b80601f016020809104026020016040519081016040528092919081815260200182805461040a906109d9565b80156104555780601f1061042c57610100808354040283529160200191610455565b820191905f5260205f20905b81548152906001019060200180831161043857829003601f168201915b50505050509050919050565b600354606090801580159061047557505f83115b1561075f575f8367ffffffffffffffff81111561049457610494610b04565b6040519080825280602002602001820160405280156104fd57816020015b6104ea60405180606001604052805f73ffffffffffffffffffffffffffffffffffffffff168152602001606081526020015f81525090565b8152602001906001900390816104b25790505b5090505f5b821561068d575f838152600260208181526040808420815160808101835281548152600182015473ffffffffffffffffffffffffffffffffffffffff169381019390935292830180549293929184019161055b906109d9565b80601f0160208091040260200160405190810160405280929190818152602001828054610587906109d9565b80156105d25780601f106105a9576101008083540402835291602001916105d2565b820191905f5260205f20905b8154815290600101906020018083116105b557829003601f168201915b50505091835250506003919091015460209182015281015190915073ffffffffffffffffffffffffffffffffffffffff16610610575f93505061068d565b6040518060600160405280826020015173ffffffffffffffffffffffffffffffffffffffff16815260200182604001518152602001826060015181525083838151811061065f5761065f610dc0565b6020026020010181905250818061067590610ded565b925050858203610685575061068d565b519250610502565b8067ffffffffffffffff8111156106a6576106a6610b04565b60405190808252806020026020018201604052801561070f57816020015b6106fc60405180606001604052805f73ffffffffffffffffffffffffffffffffffffffff168152602001606081526020015f81525090565b8152602001906001900390816106c45790505b5093505f5b8181101561075b5782818151811061072e5761072e610dc0565b602002602001015185828151811061074857610748610dc0565b6020908102919091010152600101610714565b5050505b50919050565b508054610771906109d9565b5f825580601f10610780575050565b601f0160209004905f5260205f209081019061079c919061079f565b50565b5b808211156107b3575f81556001016107a0565b5090565b5f5f602083850312156107c8575f5ffd5b823567ffffffffffffffff8111156107de575f5ffd5b8301601f810185136107ee575f5ffd5b803567ffffffffffffffff811115610804575f5ffd5b856020828401011115610815575f5ffd5b6020919091019590945092505050565b5f60208284031215610835575f5ffd5b813573ffffffffffffffffffffffffffffffffffffffff81168114610858575f5ffd5b9392505050565b5f81518084528060208401602086015e5f6020828601015260207fffffffffffffffffffffffffffffffffffffffffffffffffffffffffffffffe0601f83011685010191505092915050565b602081525f610858602083018461085f565b5f602082840312156108cd575f5ffd5b5035919050565b5f602082016020835280845180835260408501915060408160051b8601019250602086015f5b82811015610981577fffffffffffffffffffffffffffffffffffffffffffffffffffffffffffffffc0878603018452815173ffffffffffffffffffffffffffffffffffffffff815116865260208101516060602088015261095e606088018261085f565b6040928301519790920196909652945060209384019391909101906001016108fa565b50929695505050505050565b60208152816020820152818360408301375f818301604090810191909152601f9092017fffffffffffffffffffffffffffffffffffffffffffffffffffffffffffffffe0160101919050565b600181811c908216806109ed57607f821691505b60208210810361075f577f4e487b71000000000000000000000000000000000000000000000000000000005f52602260045260245ffd5b5f5f8554610a31816109d9565b600182168015610a485760018114610a7b57610aa8565b7fffffffffffffffffffffffffffffffffffffffffffffffffffffffffffffff0083168652811515820286019350610aa8565b885f5260205f205f5b83811015610aa057815488820152600190910190602001610a84565b505081860193505b505050838582375f930192835250909392505050565b7f4e487b71000000000000000000000000000000000000000000000000000000005f52601160045260245ffd5b80820180821115610afe57610afe610abe565b92915050565b7f4e487b71000000000000000000000000000000000000000000000000000000005f52604160045260245ffd5b601f821115610b7857805f5260205f20601f840160051c81016020851015610b565750805b601f840160051c820191505b81811015610b75575f8155600101610b62565b50505b505050565b818103610b88575050565b610b9282546109d9565b67ffffffffffffffff811115610baa57610baa610b04565b610bbe81610bb884546109d9565b84610b31565b5f601f821160018114610c11575f8315610bd85750848201545b600184901b7fffffffffffffffffffffffffffffffffffffffffffffffffffffffffffffffff600386901b1c198216175b855550610b75565b5f85815260208082208683529082207fffffffffffffffffffffffffffffffffffffffffffffffffffffffffffffffe08616925b83811015610c655782860154825560019586019590910190602001610c45565b5085831015610ca157818501547fffffffffffffffffffffffffffffffffffffffffffffffffffffffffffffffff600388901b60f8161c191681555b5050505050600190811b01905550565b815167ffffffffffffffff811115610ccb57610ccb610b04565b610cd981610bb884546109d9565b6020601f821160018114610d28575f8315610bd8575081850151600184901b7fffffffffffffffffffffffffffffffffffffffffffffffffffffffffffffffff600386901b1c19821617610c09565b5f848152602081207fffffffffffffffffffffffffffffffffffffffffffffffffffffffffffffffe08516915b82811015610d755787850151825560209485019460019092019101610d55565b5084821015610db157868401517fffffffffffffffffffffffffffffffffffffffffffffffffffffffffffffffff600387901b60f8161c191681555b50505050600190811b01905550565b7f4e487b71000000000000000000000000000000000000000000000000000000005f52603260045260245ffd5b5f7fffffffffffffffffffffffffffffffffffffffffffffffffffffffffffffffff8203610e1d57610e1d610abe565b506001019056fea2646970667358221220f4057ceedc36f2753e17006dfb55afeb5db28a5f101dedb7241cb4cf0a23e6fb64736f6c634300081c0033",
  "linkReferences": {},
  "deployedLinkReferences": {},
  "immutableReferences": {},
  "inputSourceName": "project/src/GreetingsRegistry/GreetingsRegistry.sol",
  "devdoc": {
    "errors": {
      "InvalidMessage(string)": [
        {
          "params": {
            "message": "the greeting"
          }
        }
      ]
    },
    "events": {
      "MessageChanged(address,string)": {
        "params": {
          "message": "the new greeting",
          "user": "the account whose greeting was updated"
        }
      }
    },
    "kind": "dev",
    "methods": {
      "setMessage(string)": {
        "params": {
          "message": "the new greeting"
        }
      }
    },
    "title": "Greetings Registry",
    "version": 1
  },
  "evm": {
    "gasEstimates": {
      "creation": {
        "codeDepositCost": "734800",
        "executionCost": "infinite",
        "totalCost": "infinite"
      },
      "external": {
        "getLastMessages(uint256)": "infinite",
        "messages(address)": "infinite",
        "setMessage(string)": "infinite"
      }
    }
  },
  "storageLayout": {
    "storage": [
      {
        "astId": 20,
        "contract": "project/src/GreetingsRegistry/GreetingsRegistry.sol:GreetingsRegistry",
        "label": "_prefix",
        "offset": 0,
        "slot": "0",
        "type": "t_string_storage"
      },
      {
        "astId": 33,
        "contract": "project/src/GreetingsRegistry/GreetingsRegistry.sol:GreetingsRegistry",
        "label": "_accountToMessage",
        "offset": 0,
        "slot": "1",
        "type": "t_mapping(t_address,t_uint256)"
      },
      {
        "astId": 38,
        "contract": "project/src/GreetingsRegistry/GreetingsRegistry.sol:GreetingsRegistry",
        "label": "_messages",
        "offset": 0,
        "slot": "2",
        "type": "t_mapping(t_uint256,t_struct(MessagePointer)29_storage)"
      },
      {
        "astId": 40,
        "contract": "project/src/GreetingsRegistry/GreetingsRegistry.sol:GreetingsRegistry",
        "label": "_lastMessage",
        "offset": 0,
        "slot": "3",
        "type": "t_uint256"
      }
    ],
    "types": {
      "t_address": {
        "encoding": "inplace",
        "label": "address",
        "numberOfBytes": "20"
      },
      "t_mapping(t_address,t_uint256)": {
        "encoding": "mapping",
        "key": "t_address",
        "label": "mapping(address => uint256)",
        "numberOfBytes": "32",
        "value": "t_uint256"
      },
      "t_mapping(t_uint256,t_struct(MessagePointer)29_storage)": {
        "encoding": "mapping",
        "key": "t_uint256",
        "label": "mapping(uint256 => struct GreetingsRegistry.MessagePointer)",
        "numberOfBytes": "32",
        "value": "t_struct(MessagePointer)29_storage"
      },
      "t_string_storage": {
        "encoding": "bytes",
        "label": "string",
        "numberOfBytes": "32"
      },
      "t_struct(MessagePointer)29_storage": {
        "encoding": "inplace",
        "label": "struct GreetingsRegistry.MessagePointer",
        "members": [
          {
            "astId": 22,
            "contract": "project/src/GreetingsRegistry/GreetingsRegistry.sol:GreetingsRegistry",
            "label": "previous",
            "offset": 0,
            "slot": "0",
            "type": "t_uint256"
          },
          {
            "astId": 24,
            "contract": "project/src/GreetingsRegistry/GreetingsRegistry.sol:GreetingsRegistry",
            "label": "account",
            "offset": 0,
            "slot": "1",
            "type": "t_address"
          },
          {
            "astId": 26,
            "contract": "project/src/GreetingsRegistry/GreetingsRegistry.sol:GreetingsRegistry",
            "label": "message",
            "offset": 0,
            "slot": "2",
            "type": "t_string_storage"
          },
          {
            "astId": 28,
            "contract": "project/src/GreetingsRegistry/GreetingsRegistry.sol:GreetingsRegistry",
            "label": "timestamp",
            "offset": 0,
            "slot": "3",
            "type": "t_uint256"
          }
        ],
        "numberOfBytes": "128"
      },
      "t_uint256": {
        "encoding": "inplace",
        "label": "uint256",
        "numberOfBytes": "32"
      }
    }
  },
  "userdoc": {
    "errors": {
      "InvalidMessage(string)": [
        {
          "notice": "happen when trying to set an invalid greeting"
        }
      ]
    },
    "events": {
      "MessageChanged(address,string)": {
        "notice": "emitted whenever a user updates their greeting"
      }
    },
    "kind": "user",
    "methods": {
      "messages(address)": {
        "notice": "the greeting for each account"
      },
      "setMessage(string)": {
        "notice": "called to set your own greeting"
      }
    },
    "notice": "let user set a greeting 1",
    "version": 1
  },
  "argsData": "0x0000000000000000000000000000000000000000000000000000000000000020000000000000000000000000000000000000000000000000000000000000000670726f78793a0000000000000000000000000000000000000000000000000000",
  "transaction": {
    "hash": "0xb0e0f57ce4903223834d873554ba877b81a366f2a5c8c3a54d20798a6c1322d6",
    "nonce": "0x33e",
    "origin": "0x61c461ecc993aadeb7e4b47e96d1b8cc37314b20"
  }
}